{
  "_format": "hh-sol-artifact-1",
  "contractName": "RoyaltyDistribution",
  "sourceName": "contracts/RoyaltyDistribution.sol",
  "abi": [
    {
      "inputs": [
        {
          "internalType": "address",
          "name": "_musicNFT",
          "type": "address"
        }
      ],
      "stateMutability": "nonpayable",
      "type": "constructor"
    },
    {
      "anonymous": false,
      "inputs": [
        {
          "indexed": true,
          "internalType": "address",
          "name": "previousOwner",
          "type": "address"
        },
        {
          "indexed": true,
          "internalType": "address",
          "name": "newOwner",
          "type": "address"
        }
      ],
      "name": "OwnershipTransferred",
      "type": "event"
    },
    {
      "anonymous": false,
      "inputs": [
        {
          "indexed": true,
          "internalType": "uint256",
          "name": "tokenId",
          "type": "uint256"
        },
        {
          "indexed": false,
          "internalType": "uint256",
          "name": "amount",
          "type": "uint256"
        },
        {
          "indexed": true,
          "internalType": "address",
          "name": "recipient",
          "type": "address"
        }
      ],
      "name": "RoyaltiesDistributed",
      "type": "event"
    },
    {
      "inputs": [
        {
          "internalType": "uint256",
          "name": "tokenId",
          "type": "uint256"
        }
      ],
      "name": "distributeRoyalties",
      "outputs": [],
      "stateMutability": "payable",
      "type": "function"
    },
    {
      "inputs": [],
      "name": "musicNFT",
      "outputs": [
        {
          "internalType": "contract IMusicNFT",
          "name": "",
          "type": "address"
        }
      ],
      "stateMutability": "view",
      "type": "function"
    },
    {
      "inputs": [],
      "name": "owner",
      "outputs": [
        {
          "internalType": "address",
          "name": "",
          "type": "address"
        }
      ],
      "stateMutability": "view",
      "type": "function"
    },
    {
      "inputs": [],
      "name": "renounceOwnership",
      "outputs": [],
      "stateMutability": "nonpayable",
      "type": "function"
    },
    {
      "inputs": [
        {
          "internalType": "address",
          "name": "newOwner",
          "type": "address"
        }
      ],
      "name": "transferOwnership",
      "outputs": [],
      "stateMutability": "nonpayable",
      "type": "function"
    }
  ],
  "bytecode": "0x608060405234801561001057600080fd5b50604051610e14380380610e1483398181016040528101906100329190610176565b61004e61004361009560201b60201c565b61009d60201b60201c565b80600160006101000a81548173ffffffffffffffffffffffffffffffffffffffff021916908373ffffffffffffffffffffffffffffffffffffffff160217905550506101e8565b600033905090565b60008060009054906101000a900473ffffffffffffffffffffffffffffffffffffffff169050816000806101000a81548173ffffffffffffffffffffffffffffffffffffffff021916908373ffffffffffffffffffffffffffffffffffffffff1602179055508173ffffffffffffffffffffffffffffffffffffffff168173ffffffffffffffffffffffffffffffffffffffff167f8be0079c531659141344cd1fd0a4f28419497f9722a3daafe3b4186f6b6457e060405160405180910390a35050565b600081519050610170816101d1565b92915050565b60006020828403121561018857600080fd5b600061019684828501610161565b91505092915050565b60006101aa826101b1565b9050919050565b600073ffffffffffffffffffffffffffffffffffffffff82169050919050565b6101da8161019f565b81146101e557600080fd5b50565b610c1d806101f76000396000f3fe60806040526004361061004a5760003560e01c8063715018a61461004f5780638da5cb5b14610066578063b07cb36514610091578063ee577b15146100ad578063f2fde38b146100d8575b600080fd5b34801561005b57600080fd5b50610064610101565b005b34801561007257600080fd5b5061007b610115565b604051610088919061086d565b60405180910390f35b6100ab60048036038101906100a69190610707565b61013e565b005b3480156100b957600080fd5b506100c261046d565b6040516100cf9190610888565b60405180910390f35b3480156100e457600080fd5b506100ff60048036038101906100fa91906106b5565b610493565b005b610109610517565b6101136000610595565b565b60008060009054906101000a900473ffffffffffffffffffffffffffffffffffffffff16905090565b6000600160009054906101000a900473ffffffffffffffffffffffffffffffffffffffff1673ffffffffffffffffffffffffffffffffffffffff166312926030836040518263ffffffff1660e01b815260040161019b9190610943565b60206040518083038186803b1580156101b357600080fd5b505afa1580156101c7573d6000803e3d6000fd5b505050506040513d601f19601f820116820180604052508101906101eb9190610730565b90506000600160009054906101000a900473ffffffffffffffffffffffffffffffffffffffff1673ffffffffffffffffffffffffffffffffffffffff16636352211e846040518263ffffffff1660e01b815260040161024a9190610943565b60206040518083038186803b15801561026257600080fd5b505afa158015610276573d6000803e3d6000fd5b505050506040513d601f19601f8201168201806040525081019061029a91906106de565b9050600082116102df576040517f08c379a00000000000000000000000000000000000000000000000000000000081526004016102d690610923565b60405180910390fd5b600073ffffffffffffffffffffffffffffffffffffffff168173ffffffffffffffffffffffffffffffffffffffff16141561034f576040517f08c379a000000000000000000000000000000000000000000000000000000000815260040161034690610903565b60405180910390fd5b60006064833461035f91906109ab565b610369919061097a565b905060008273ffffffffffffffffffffffffffffffffffffffff168260405161039190610858565b60006040518083038185875af1925050503d80600081146103ce576040519150601f19603f3d011682016040523d82523d6000602084013e6103d3565b606091505b5050905080610417576040517f08c379a000000000000000000000000000000000000000000000000000000000815260040161040e906108c3565b60405180910390fd5b8273ffffffffffffffffffffffffffffffffffffffff16857f5b8ae8a167fe57f0d97bc601bab7e0958407678357cc6f3b41103dc82f2b17338460405161045e9190610943565b60405180910390a35050505050565b600160009054906101000a900473ffffffffffffffffffffffffffffffffffffffff1681565b61049b610517565b600073ffffffffffffffffffffffffffffffffffffffff168173ffffffffffffffffffffffffffffffffffffffff16141561050b576040517f08c379a0000000000000000000000000000000000000000000000000000000008152600401610502906108a3565b60405180910390fd5b61051481610595565b50565b61051f610659565b73ffffffffffffffffffffffffffffffffffffffff1661053d610115565b73ffffffffffffffffffffffffffffffffffffffff1614610593576040517f08c379a000000000000000000000000000000000000000000000000000000000815260040161058a906108e3565b60405180910390fd5b565b60008060009054906101000a900473ffffffffffffffffffffffffffffffffffffffff169050816000806101000a81548173ffffffffffffffffffffffffffffffffffffffff021916908373ffffffffffffffffffffffffffffffffffffffff1602179055508173ffffffffffffffffffffffffffffffffffffffff168173ffffffffffffffffffffffffffffffffffffffff167f8be0079c531659141344cd1fd0a4f28419497f9722a3daafe3b4186f6b6457e060405160405180910390a35050565b600033905090565b60008135905061067081610bb9565b92915050565b60008151905061068581610bb9565b92915050565b60008135905061069a81610bd0565b92915050565b6000815190506106af81610bd0565b92915050565b6000602082840312156106c757600080fd5b60006106d584828501610661565b91505092915050565b6000602082840312156106f057600080fd5b60006106fe84828501610676565b91505092915050565b60006020828403121561071957600080fd5b60006107278482850161068b565b91505092915050565b60006020828403121561074257600080fd5b6000610750848285016106a0565b91505092915050565b61076281610a05565b82525050565b61077181610a41565b82525050565b6000610784602683610969565b915061078f82610ac3565b604082019050919050565b60006107a7601783610969565b91506107b282610b12565b602082019050919050565b60006107ca602083610969565b91506107d582610b3b565b602082019050919050565b60006107ed601683610969565b91506107f882610b64565b602082019050919050565b600061081060008361095e565b915061081b82610b8d565b600082019050919050565b6000610833601f83610969565b915061083e82610b90565b602082019050919050565b61085281610a37565b82525050565b600061086382610803565b9150819050919050565b60006020820190506108826000830184610759565b92915050565b600060208201905061089d6000830184610768565b92915050565b600060208201905081810360008301526108bc81610777565b9050919050565b600060208201905081810360008301526108dc8161079a565b9050919050565b600060208201905081810360008301526108fc816107bd565b9050919050565b6000602082019050818103600083015261091c816107e0565b9050919050565b6000602082019050818103600083015261093c81610826565b9050919050565b60006020820190506109586000830184610849565b92915050565b600081905092915050565b600082825260208201905092915050565b600061098582610a37565b915061099083610a37565b9250826109a05761099f610a94565b5b828204905092915050565b60006109b682610a37565b91506109c183610a37565b9250817fffffffffffffffffffffffffffffffffffffffffffffffffffffffffffffffff04831182151516156109fa576109f9610a65565b5b828202905092915050565b6000610a1082610a17565b9050919050565b600073ffffffffffffffffffffffffffffffffffffffff82169050919050565b6000819050919050565b6000610a4c82610a53565b9050919050565b6000610a5e82610a17565b9050919050565b7f4e487b7100000000000000000000000000000000000000000000000000000000600052601160045260246000fd5b7f4e487b7100000000000000000000000000000000000000000000000000000000600052601260045260246000fd5b7f4f776e61626c653a206e6577206f776e657220697320746865207a65726f206160008201527f6464726573730000000000000000000000000000000000000000000000000000602082015250565b7f526f79616c7479207472616e73666572206661696c6564000000000000000000600082015250565b7f4f776e61626c653a2063616c6c6572206973206e6f7420746865206f776e6572600082015250565b7f496e76616c696420617274697374206164647265737300000000000000000000600082015250565b50565b7f4e6f20726f79616c746965732073657420666f72207468697320746f6b656e00600082015250565b610bc281610a05565b8114610bcd57600080fd5b50565b610bd981610a37565b8114610be457600080fd5b5056fea26469706673582212204f42861dfb7d9a715f4a6f55d8cd0577a9eb0b05c6bc0db8cd544c35158002f164736f6c63430008010033",
  "linkReferences": {},
  "deployedLinkReferences": {}
}