{
  "_format": "hh-sol-artifact-1",
  "contractName": "MusicNFT",
  "sourceName": "contracts/MusicNFT.sol",
  "abi": [
    {
      "inputs": [],
      "stateMutability": "nonpayable",
      "type": "constructor"
    },
    {
      "anonymous": false,
      "inputs": [
        {
          "indexed": true,
          "internalType": "address",
          "name": "owner",
          "type": "address"
        },
        {
          "indexed": true,
          "internalType": "address",
          "name": "approved",
          "type": "address"
        },
        {
          "indexed": true,
          "internalType": "uint256",
          "name": "tokenId",
          "type": "uint256"
        }
      ],
      "name": "Approval",
      "type": "event"
    },
    {
      "anonymous": false,
      "inputs": [
        {
          "indexed": true,
          "internalType": "address",
          "name": "owner",
          "type": "address"
        },
        {
          "indexed": true,
          "internalType": "address",
          "name": "operator",
          "type": "address"
        },
        {
          "indexed": false,
          "internalType": "bool",
          "name": "approved",
          "type": "bool"
        }
      ],
      "name": "ApprovalForAll",
      "type": "event"
    },
    {
      "anonymous": false,
      "inputs": [
        {
          "indexed": true,
          "internalType": "address",
          "name": "artist",
          "type": "address"
        }
      ],
      "name": "ArtistApproved",
      "type": "event"
    },
    {
      "anonymous": false,
      "inputs": [
        {
          "indexed": false,
          "internalType": "uint256",
          "name": "_fromTokenId",
          "type": "uint256"
        },
        {
          "indexed": false,
          "internalType": "uint256",
          "name": "_toTokenId",
          "type": "uint256"
        }
      ],
      "name": "BatchMetadataUpdate",
      "type": "event"
    },
    {
      "anonymous": false,
      "inputs": [
        {
          "indexed": false,
          "internalType": "uint256",
          "name": "_tokenId",
          "type": "uint256"
        }
      ],
      "name": "MetadataUpdate",
      "type": "event"
    },
    {
      "anonymous": false,
      "inputs": [
        {
          "indexed": true,
          "internalType": "uint256",
          "name": "tokenId",
          "type": "uint256"
        },
        {
          "indexed": true,
          "internalType": "address",
          "name": "artist",
          "type": "address"
        },
        {
          "indexed": false,
          "internalType": "string",
          "name": "metadataURI",
          "type": "string"
        }
      ],
      "name": "Minted",
      "type": "event"
    },
    {
      "anonymous": false,
      "inputs": [
        {
          "indexed": true,
          "internalType": "address",
          "name": "previousOwner",
          "type": "address"
        },
        {
          "indexed": true,
          "internalType": "address",
          "name": "newOwner",
          "type": "address"
        }
      ],
      "name": "OwnershipTransferred",
      "type": "event"
    },
    {
      "anonymous": false,
      "inputs": [
        {
          "indexed": true,
          "internalType": "address",
          "name": "from",
          "type": "address"
        },
        {
          "indexed": true,
          "internalType": "address",
          "name": "to",
          "type": "address"
        },
        {
          "indexed": true,
          "internalType": "uint256",
          "name": "tokenId",
          "type": "uint256"
        }
      ],
      "name": "Transfer",
      "type": "event"
    },
    {
      "inputs": [
        {
          "internalType": "address",
          "name": "to",
          "type": "address"
        },
        {
          "internalType": "uint256",
          "name": "tokenId",
          "type": "uint256"
        }
      ],
      "name": "approve",
      "outputs": [],
      "stateMutability": "nonpayable",
      "type": "function"
    },
    {
      "inputs": [
        {
          "internalType": "address",
          "name": "artist",
          "type": "address"
        }
      ],
      "name": "approveArtist",
      "outputs": [],
      "stateMutability": "nonpayable",
      "type": "function"
    },
    {
      "inputs": [
        {
          "internalType": "address",
          "name": "owner",
          "type": "address"
        }
      ],
      "name": "balanceOf",
      "outputs": [
        {
          "internalType": "uint256",
          "name": "",
          "type": "uint256"
        }
      ],
      "stateMutability": "view",
      "type": "function"
    },
    {
      "inputs": [
        {
          "internalType": "uint256",
          "name": "tokenId",
          "type": "uint256"
        }
      ],
      "name": "getApproved",
      "outputs": [
        {
          "internalType": "address",
          "name": "",
          "type": "address"
        }
      ],
      "stateMutability": "view",
      "type": "function"
    },
    {
      "inputs": [
        {
          "internalType": "address",
          "name": "",
          "type": "address"
        }
      ],
      "name": "isApprovedArtist",
      "outputs": [
        {
          "internalType": "bool",
          "name": "",
          "type": "bool"
        }
      ],
      "stateMutability": "view",
      "type": "function"
    },
    {
      "inputs": [
        {
          "internalType": "address",
          "name": "owner",
          "type": "address"
        },
        {
          "internalType": "address",
          "name": "operator",
          "type": "address"
        }
      ],
      "name": "isApprovedForAll",
      "outputs": [
        {
          "internalType": "bool",
          "name": "",
          "type": "bool"
        }
      ],
      "stateMutability": "view",
      "type": "function"
    },
    {
      "inputs": [
        {
          "internalType": "string",
          "name": "metadataURI",
          "type": "string"
        },
        {
          "internalType": "uint256",
          "name": "royalty",
          "type": "uint256"
        }
      ],
      "name": "mint",
      "outputs": [],
      "stateMutability": "nonpayable",
      "type": "function"
    },
    {
      "inputs": [],
      "name": "name",
      "outputs": [
        {
          "internalType": "string",
          "name": "",
          "type": "string"
        }
      ],
      "stateMutability": "view",
      "type": "function"
    },
    {
      "inputs": [],
      "name": "nextTokenId",
      "outputs": [
        {
          "internalType": "uint256",
          "name": "",
          "type": "uint256"
        }
      ],
      "stateMutability": "view",
      "type": "function"
    },
    {
      "inputs": [],
      "name": "owner",
      "outputs": [
        {
          "internalType": "address",
          "name": "",
          "type": "address"
        }
      ],
      "stateMutability": "view",
      "type": "function"
    },
    {
      "inputs": [
        {
          "internalType": "uint256",
          "name": "tokenId",
          "type": "uint256"
        }
      ],
      "name": "ownerOf",
      "outputs": [
        {
          "internalType": "address",
          "name": "",
          "type": "address"
        }
      ],
      "stateMutability": "view",
      "type": "function"
    },
    {
      "inputs": [],
      "name": "renounceOwnership",
      "outputs": [],
      "stateMutability": "nonpayable",
      "type": "function"
    },
    {
      "inputs": [
        {
          "internalType": "uint256",
          "name": "",
          "type": "uint256"
        }
      ],
      "name": "royaltyPercentage",
      "outputs": [
        {
          "internalType": "uint256",
          "name": "",
          "type": "uint256"
        }
      ],
      "stateMutability": "view",
      "type": "function"
    },
    {
      "inputs": [
        {
          "internalType": "address",
          "name": "from",
          "type": "address"
        },
        {
          "internalType": "address",
          "name": "to",
          "type": "address"
        },
        {
          "internalType": "uint256",
          "name": "tokenId",
          "type": "uint256"
        }
      ],
      "name": "safeTransferFrom",
      "outputs": [],
      "stateMutability": "nonpayable",
      "type": "function"
    },
    {
      "inputs": [
        {
          "internalType": "address",
          "name": "from",
          "type": "address"
        },
        {
          "internalType": "address",
          "name": "to",
          "type": "address"
        },
        {
          "internalType": "uint256",
          "name": "tokenId",
          "type": "uint256"
        },
        {
          "internalType": "bytes",
          "name": "data",
          "type": "bytes"
        }
      ],
      "name": "safeTransferFrom",
      "outputs": [],
      "stateMutability": "nonpayable",
      "type": "function"
    },
    {
      "inputs": [
        {
          "internalType": "address",
          "name": "operator",
          "type": "address"
        },
        {
          "internalType": "bool",
          "name": "approved",
          "type": "bool"
        }
      ],
      "name": "setApprovalForAll",
      "outputs": [],
      "stateMutability": "nonpayable",
      "type": "function"
    },
    {
      "inputs": [
        {
          "internalType": "bytes4",
          "name": "interfaceId",
          "type": "bytes4"
        }
      ],
      "name": "supportsInterface",
      "outputs": [
        {
          "internalType": "bool",
          "name": "",
          "type": "bool"
        }
      ],
      "stateMutability": "view",
      "type": "function"
    },
    {
      "inputs": [],
      "name": "symbol",
      "outputs": [
        {
          "internalType": "string",
          "name": "",
          "type": "string"
        }
      ],
      "stateMutability": "view",
      "type": "function"
    },
    {
      "inputs": [
        {
          "internalType": "uint256",
          "name": "tokenId",
          "type": "uint256"
        }
      ],
      "name": "tokenURI",
      "outputs": [
        {
          "internalType": "string",
          "name": "",
          "type": "string"
        }
      ],
      "stateMutability": "view",
      "type": "function"
    },
    {
      "inputs": [
        {
          "internalType": "address",
          "name": "from",
          "type": "address"
        },
        {
          "internalType": "address",
          "name": "to",
          "type": "address"
        },
        {
          "internalType": "uint256",
          "name": "tokenId",
          "type": "uint256"
        }
      ],
      "name": "transferFrom",
      "outputs": [],
      "stateMutability": "nonpayable",
      "type": "function"
    },
    {
      "inputs": [
        {
          "internalType": "address",
          "name": "newOwner",
          "type": "address"
        }
      ],
      "name": "transferOwnership",
      "outputs": [],
      "stateMutability": "nonpayable",
      "type": "function"
    }
  ],
  "bytecode": "0x60806040523480156200001157600080fd5b506040518060400160405280600881526020017f4d757369634e46540000000000000000000000000000000000000000000000008152506040518060400160405280600481526020017f4d4e465400000000000000000000000000000000000000000000000000000000815250816000908051906020019062000096929190620001a6565b508060019080519060200190620000af929190620001a6565b505050620000d2620000c6620000d860201b60201c565b620000e060201b60201c565b620002bb565b600033905090565b6000600760009054906101000a900473ffffffffffffffffffffffffffffffffffffffff16905081600760006101000a81548173ffffffffffffffffffffffffffffffffffffffff021916908373ffffffffffffffffffffffffffffffffffffffff1602179055508173ffffffffffffffffffffffffffffffffffffffff168173ffffffffffffffffffffffffffffffffffffffff167f8be0079c531659141344cd1fd0a4f28419497f9722a3daafe3b4186f6b6457e060405160405180910390a35050565b828054620001b49062000256565b90600052602060002090601f016020900481019282620001d8576000855562000224565b82601f10620001f357805160ff191683800117855562000224565b8280016001018555821562000224579182015b828111156200022357825182559160200191906001019062000206565b5b50905062000233919062000237565b5090565b5b808211156200025257600081600090555060010162000238565b5090565b600060028204905060018216806200026f57607f821691505b602082108114156200028657620002856200028c565b5b50919050565b7f4e487b7100000000000000000000000000000000000000000000000000000000600052602260045260246000fd5b61318f80620002cb6000396000f3fe608060405234801561001057600080fd5b50600436106101375760003560e01c80636352211e116100b857806395d89b411161007c57806395d89b411461034c578063a22cb4651461036a578063b88d4fde14610386578063c87b56dd146103a2578063e985e9c5146103d2578063f2fde38b1461040257610137565b80636352211e146102a657806370a08231146102d6578063715018a61461030657806375794a3c146103105780638da5cb5b1461032e57610137565b806312926030116100ff57806312926030146101f257806320633a3c1461022257806323b872dd1461025257806342842e0e1461026e57806359424b781461028a57610137565b806301ffc9a71461013c578063056b01ce1461016c57806306fdde0314610188578063081812fc146101a6578063095ea7b3146101d6575b600080fd5b61015660048036038101906101519190612377565b61041e565b6040516101639190612802565b60405180910390f35b610186600480360381019061018191906123c9565b61047f565b005b610190610631565b60405161019d9190612841565b60405180910390f35b6101c060048036038101906101bb9190612421565b6106c3565b6040516101cd919061279b565b60405180910390f35b6101f060048036038101906101eb919061233b565b610709565b005b61020c60048036038101906102079190612421565b610821565b6040516102199190612a63565b60405180910390f35b61023c600480360381019061023791906121d0565b610839565b6040516102499190612802565b60405180910390f35b61026c60048036038101906102679190612235565b610859565b005b61028860048036038101906102839190612235565b6108b9565b005b6102a4600480360381019061029f91906121d0565b6108d9565b005b6102c060048036038101906102bb9190612421565b61097f565b6040516102cd919061279b565b60405180910390f35b6102f060048036038101906102eb91906121d0565b610a06565b6040516102fd9190612a63565b60405180910390f35b61030e610abe565b005b610318610ad2565b6040516103259190612a63565b60405180910390f35b610336610ad8565b604051610343919061279b565b60405180910390f35b610354610b02565b6040516103619190612841565b60405180910390f35b610384600480360381019061037f91906122ff565b610b94565b005b6103a0600480360381019061039b9190612284565b610baa565b005b6103bc60048036038101906103b79190612421565b610c0c565b6040516103c99190612841565b60405180910390f35b6103ec60048036038101906103e791906121f9565b610d1f565b6040516103f99190612802565b60405180910390f35b61041c600480360381019061041791906121d0565b610db3565b005b6000634906490660e01b7bffffffffffffffffffffffffffffffffffffffffffffffffffffffff1916827bffffffffffffffffffffffffffffffffffffffffffffffffffffffff19161480610478575061047782610e37565b5b9050919050565b600960003373ffffffffffffffffffffffffffffffffffffffff1673ffffffffffffffffffffffffffffffffffffffff16815260200190815260200160002060009054906101000a900460ff1661050b576040517f08c379a0000000000000000000000000000000000000000000000000000000008152600401610502906129e3565b60405180910390fd5b600a81111561054f576040517f08c379a000000000000000000000000000000000000000000000000000000000815260040161054690612943565b60405180910390fd5b60006008600081548092919061056490612c30565b9190505590506105743382610f19565b6105c28185858080601f016020809104026020016040519081016040528093929190818152602001838380828437600081840152601f19601f82011690508083019250505050505050611137565b81600a6000838152602001908152602001600020819055503373ffffffffffffffffffffffffffffffffffffffff16817f3b8a974a6971dbe70c8718ec80406b2790d2aa5477b6a5bed3d94fa19e06d60d868660405161062392919061281d565b60405180910390a350505050565b60606000805461064090612bcd565b80601f016020809104026020016040519081016040528092919081815260200182805461066c90612bcd565b80156106b95780601f1061068e576101008083540402835291602001916106b9565b820191906000526020600020905b81548152906001019060200180831161069c57829003601f168201915b5050505050905090565b60006106ce826111e2565b6004600083815260200190815260200160002060009054906101000a900473ffffffffffffffffffffffffffffffffffffffff169050919050565b60006107148261097f565b90508073ffffffffffffffffffffffffffffffffffffffff168373ffffffffffffffffffffffffffffffffffffffff161415610785576040517f08c379a000000000000000000000000000000000000000000000000000000000815260040161077c90612a23565b60405180910390fd5b8073ffffffffffffffffffffffffffffffffffffffff166107a461122d565b73ffffffffffffffffffffffffffffffffffffffff1614806107d357506107d2816107cd61122d565b610d1f565b5b610812576040517f08c379a000000000000000000000000000000000000000000000000000000000815260040161080990612a43565b60405180910390fd5b61081c8383611235565b505050565b600a6020528060005260406000206000915090505481565b60096020528060005260406000206000915054906101000a900460ff1681565b61086a61086461122d565b826112ee565b6108a9576040517f08c379a00000000000000000000000000000000000000000000000000000000081526004016108a090612863565b60405180910390fd5b6108b4838383611383565b505050565b6108d483838360405180602001604052806000815250610baa565b505050565b6108e161167d565b6001600960008373ffffffffffffffffffffffffffffffffffffffff1673ffffffffffffffffffffffffffffffffffffffff16815260200190815260200160002060006101000a81548160ff0219169083151502179055508073ffffffffffffffffffffffffffffffffffffffff167f7a6f91276a418f3cf3b4fc9df1f37747fc8c9e84d25f644b22de8eae751f8d9560405160405180910390a250565b60008061098b836116fb565b9050600073ffffffffffffffffffffffffffffffffffffffff168173ffffffffffffffffffffffffffffffffffffffff1614156109fd576040517f08c379a00000000000000000000000000000000000000000000000000000000081526004016109f490612a03565b60405180910390fd5b80915050919050565b60008073ffffffffffffffffffffffffffffffffffffffff168273ffffffffffffffffffffffffffffffffffffffff161415610a77576040517f08c379a0000000000000000000000000000000000000000000000000000000008152600401610a6e90612963565b60405180910390fd5b600360008373ffffffffffffffffffffffffffffffffffffffff1673ffffffffffffffffffffffffffffffffffffffff168152602001908152602001600020549050919050565b610ac661167d565b610ad06000611738565b565b60085481565b6000600760009054906101000a900473ffffffffffffffffffffffffffffffffffffffff16905090565b606060018054610b1190612bcd565b80601f0160208091040260200160405190810160405280929190818152602001828054610b3d90612bcd565b8015610b8a5780601f10610b5f57610100808354040283529160200191610b8a565b820191906000526020600020905b815481529060010190602001808311610b6d57829003601f168201915b5050505050905090565b610ba6610b9f61122d565b83836117fe565b5050565b610bbb610bb561122d565b836112ee565b610bfa576040517f08c379a0000000000000000000000000000000000000000000000000000000008152600401610bf190612863565b60405180910390fd5b610c068484848461196b565b50505050565b6060610c17826111e2565b6000600660008481526020019081526020016000208054610c3790612bcd565b80601f0160208091040260200160405190810160405280929190818152602001828054610c6390612bcd565b8015610cb05780601f10610c8557610100808354040283529160200191610cb0565b820191906000526020600020905b815481529060010190602001808311610c9357829003601f168201915b505050505090506000610cc16119c7565b9050600081511415610cd7578192505050610d1a565b600082511115610d0c578082604051602001610cf4929190612777565b60405160208183030381529060405292505050610d1a565b610d15846119de565b925050505b919050565b6000600560008473ffffffffffffffffffffffffffffffffffffffff1673ffffffffffffffffffffffffffffffffffffffff16815260200190815260200160002060008373ffffffffffffffffffffffffffffffffffffffff1673ffffffffffffffffffffffffffffffffffffffff16815260200190815260200160002060009054906101000a900460ff16905092915050565b610dbb61167d565b600073ffffffffffffffffffffffffffffffffffffffff168173ffffffffffffffffffffffffffffffffffffffff161415610e2b576040517f08c379a0000000000000000000000000000000000000000000000000000000008152600401610e22906128a3565b60405180910390fd5b610e3481611738565b50565b60007f80ac58cd000000000000000000000000000000000000000000000000000000007bffffffffffffffffffffffffffffffffffffffffffffffffffffffff1916827bffffffffffffffffffffffffffffffffffffffffffffffffffffffff19161480610f0257507f5b5e139f000000000000000000000000000000000000000000000000000000007bffffffffffffffffffffffffffffffffffffffffffffffffffffffff1916827bffffffffffffffffffffffffffffffffffffffffffffffffffffffff1916145b80610f125750610f1182611a46565b5b9050919050565b600073ffffffffffffffffffffffffffffffffffffffff168273ffffffffffffffffffffffffffffffffffffffff161415610f89576040517f08c379a0000000000000000000000000000000000000000000000000000000008152600401610f80906129a3565b60405180910390fd5b610f9281611ab0565b15610fd2576040517f08c379a0000000000000000000000000000000000000000000000000000000008152600401610fc9906128e3565b60405180910390fd5b610fe0600083836001611af1565b610fe981611ab0565b15611029576040517f08c379a0000000000000000000000000000000000000000000000000000000008152600401611020906128e3565b60405180910390fd5b6001600360008473ffffffffffffffffffffffffffffffffffffffff1673ffffffffffffffffffffffffffffffffffffffff16815260200190815260200160002060008282540192505081905550816002600083815260200190815260200160002060006101000a81548173ffffffffffffffffffffffffffffffffffffffff021916908373ffffffffffffffffffffffffffffffffffffffff160217905550808273ffffffffffffffffffffffffffffffffffffffff16600073ffffffffffffffffffffffffffffffffffffffff167fddf252ad1be2c89b69c2b068fc378daa952ba7f163c4a11628f55a4df523b3ef60405160405180910390a4611133600083836001611af7565b5050565b61114082611ab0565b61117f576040517f08c379a000000000000000000000000000000000000000000000000000000000815260040161117690612983565b60405180910390fd5b806006600084815260200190815260200160002090805190602001906111a6929190612012565b507ff8e1a15aba9398e019f0b49df1a4fde98ee17ae345cb5f6b5e2c27f5033e8ce7826040516111d69190612a63565b60405180910390a15050565b6111eb81611ab0565b61122a576040517f08c379a000000000000000000000000000000000000000000000000000000000815260040161122190612a03565b60405180910390fd5b50565b600033905090565b816004600083815260200190815260200160002060006101000a81548173ffffffffffffffffffffffffffffffffffffffff021916908373ffffffffffffffffffffffffffffffffffffffff160217905550808273ffffffffffffffffffffffffffffffffffffffff166112a88361097f565b73ffffffffffffffffffffffffffffffffffffffff167f8c5be1e5ebec7d5bd14f71427d1e84f3dd0314c0f7b2291e5b200ac8c7c3b92560405160405180910390a45050565b6000806112fa8361097f565b90508073ffffffffffffffffffffffffffffffffffffffff168473ffffffffffffffffffffffffffffffffffffffff16148061133c575061133b8185610d1f565b5b8061137a57508373ffffffffffffffffffffffffffffffffffffffff16611362846106c3565b73ffffffffffffffffffffffffffffffffffffffff16145b91505092915050565b8273ffffffffffffffffffffffffffffffffffffffff166113a38261097f565b73ffffffffffffffffffffffffffffffffffffffff16146113f9576040517f08c379a00000000000000000000000000000000000000000000000000000000081526004016113f0906128c3565b60405180910390fd5b600073ffffffffffffffffffffffffffffffffffffffff168273ffffffffffffffffffffffffffffffffffffffff161415611469576040517f08c379a000000000000000000000000000000000000000000000000000000000815260040161146090612903565b60405180910390fd5b6114768383836001611af1565b8273ffffffffffffffffffffffffffffffffffffffff166114968261097f565b73ffffffffffffffffffffffffffffffffffffffff16146114ec576040517f08c379a00000000000000000000000000000000000000000000000000000000081526004016114e3906128c3565b60405180910390fd5b6004600082815260200190815260200160002060006101000a81549073ffffffffffffffffffffffffffffffffffffffff02191690556001600360008573ffffffffffffffffffffffffffffffffffffffff1673ffffffffffffffffffffffffffffffffffffffff168152602001908152602001600020600082825403925050819055506001600360008473ffffffffffffffffffffffffffffffffffffffff1673ffffffffffffffffffffffffffffffffffffffff16815260200190815260200160002060008282540192505081905550816002600083815260200190815260200160002060006101000a81548173ffffffffffffffffffffffffffffffffffffffff021916908373ffffffffffffffffffffffffffffffffffffffff160217905550808273ffffffffffffffffffffffffffffffffffffffff168473ffffffffffffffffffffffffffffffffffffffff167fddf252ad1be2c89b69c2b068fc378daa952ba7f163c4a11628f55a4df523b3ef60405160405180910390a46116788383836001611af7565b505050565b61168561122d565b73ffffffffffffffffffffffffffffffffffffffff166116a3610ad8565b73ffffffffffffffffffffffffffffffffffffffff16146116f9576040517f08c379a00000000000000000000000000000000000000000000000000000000081526004016116f0906129c3565b60405180910390fd5b565b60006002600083815260200190815260200160002060009054906101000a900473ffffffffffffffffffffffffffffffffffffffff169050919050565b6000600760009054906101000a900473ffffffffffffffffffffffffffffffffffffffff16905081600760006101000a81548173ffffffffffffffffffffffffffffffffffffffff021916908373ffffffffffffffffffffffffffffffffffffffff1602179055508173ffffffffffffffffffffffffffffffffffffffff168173ffffffffffffffffffffffffffffffffffffffff167f8be0079c531659141344cd1fd0a4f28419497f9722a3daafe3b4186f6b6457e060405160405180910390a35050565b8173ffffffffffffffffffffffffffffffffffffffff168373ffffffffffffffffffffffffffffffffffffffff16141561186d576040517f08c379a000000000000000000000000000000000000000000000000000000000815260040161186490612923565b60405180910390fd5b80600560008573ffffffffffffffffffffffffffffffffffffffff1673ffffffffffffffffffffffffffffffffffffffff16815260200190815260200160002060008473ffffffffffffffffffffffffffffffffffffffff1673ffffffffffffffffffffffffffffffffffffffff16815260200190815260200160002060006101000a81548160ff0219169083151502179055508173ffffffffffffffffffffffffffffffffffffffff168373ffffffffffffffffffffffffffffffffffffffff167f17307eab39ab6107e8899845ad3d59bd9653f200f220920489ca2b5937696c318360405161195e9190612802565b60405180910390a3505050565b611976848484611383565b61198284848484611afd565b6119c1576040517f08c379a00000000000000000000000000000000000000000000000000000000081526004016119b890612883565b60405180910390fd5b50505050565b606060405180602001604052806000815250905090565b60606119e9826111e2565b60006119f36119c7565b90506000815111611a135760405180602001604052806000815250611a3e565b80611a1d84611c94565b604051602001611a2e929190612777565b6040516020818303038152906040525b915050919050565b60007f01ffc9a7000000000000000000000000000000000000000000000000000000007bffffffffffffffffffffffffffffffffffffffffffffffffffffffff1916827bffffffffffffffffffffffffffffffffffffffffffffffffffffffff1916149050919050565b60008073ffffffffffffffffffffffffffffffffffffffff16611ad2836116fb565b73ffffffffffffffffffffffffffffffffffffffff1614159050919050565b50505050565b50505050565b6000611b1e8473ffffffffffffffffffffffffffffffffffffffff16611db8565b15611c87578373ffffffffffffffffffffffffffffffffffffffff1663150b7a02611b4761122d565b8786866040518563ffffffff1660e01b8152600401611b6994939291906127b6565b602060405180830381600087803b158015611b8357600080fd5b505af1925050508015611bb457506040513d601f19601f82011682018060405250810190611bb191906123a0565b60015b611c37573d8060008114611be4576040519150601f19603f3d011682016040523d82523d6000602084013e611be9565b606091505b50600081511415611c2f576040517f08c379a0000000000000000000000000000000000000000000000000000000008152600401611c2690612883565b60405180910390fd5b805181602001fd5b63150b7a0260e01b7bffffffffffffffffffffffffffffffffffffffffffffffffffffffff1916817bffffffffffffffffffffffffffffffffffffffffffffffffffffffff191614915050611c8c565b600190505b949350505050565b606060006001611ca384611ddb565b01905060008167ffffffffffffffff811115611ce8577f4e487b7100000000000000000000000000000000000000000000000000000000600052604160045260246000fd5b6040519080825280601f01601f191660200182016040528015611d1a5781602001600182028036833780820191505090505b509050600082602001820190505b600115611dad578080600190039150507f3031323334353637383961626364656600000000000000000000000000000000600a86061a8153600a8581611d97577f4e487b7100000000000000000000000000000000000000000000000000000000600052601260045260246000fd5b0494506000851415611da857611dad565b611d28565b819350505050919050565b6000808273ffffffffffffffffffffffffffffffffffffffff163b119050919050565b600080600090507a184f03e93ff9f4daa797ed6e38ed64bf6a1f0100000000000000008310611e5f577a184f03e93ff9f4daa797ed6e38ed64bf6a1f0100000000000000008381611e55577f4e487b7100000000000000000000000000000000000000000000000000000000600052601260045260246000fd5b0492506040810190505b6d04ee2d6d415b85acef81000000008310611ec2576d04ee2d6d415b85acef81000000008381611eb8577f4e487b7100000000000000000000000000000000000000000000000000000000600052601260045260246000fd5b0492506020810190505b662386f26fc100008310611f1757662386f26fc100008381611f0d577f4e487b7100000000000000000000000000000000000000000000000000000000600052601260045260246000fd5b0492506010810190505b6305f5e1008310611f66576305f5e1008381611f5c577f4e487b7100000000000000000000000000000000000000000000000000000000600052601260045260246000fd5b0492506008810190505b6127108310611fb1576127108381611fa7577f4e487b7100000000000000000000000000000000000000000000000000000000600052601260045260246000fd5b0492506004810190505b60648310611ffa5760648381611ff0577f4e487b7100000000000000000000000000000000000000000000000000000000600052601260045260246000fd5b0492506002810190505b600a8310612009576001810190505b80915050919050565b82805461201e90612bcd565b90600052602060002090601f0160209004810192826120405760008555612087565b82601f1061205957805160ff1916838001178555612087565b82800160010185558215612087579182015b8281111561208657825182559160200191906001019061206b565b5b5090506120949190612098565b5090565b5b808211156120b1576000816000905550600101612099565b5090565b60006120c86120c384612aa3565b612a7e565b9050828152602081018484840111156120e057600080fd5b6120eb848285612b8b565b509392505050565b600081359050612102816130fd565b92915050565b60008135905061211781613114565b92915050565b60008135905061212c8161312b565b92915050565b6000815190506121418161312b565b92915050565b600082601f83011261215857600080fd5b81356121688482602086016120b5565b91505092915050565b60008083601f84011261218357600080fd5b8235905067ffffffffffffffff81111561219c57600080fd5b6020830191508360018202830111156121b457600080fd5b9250929050565b6000813590506121ca81613142565b92915050565b6000602082840312156121e257600080fd5b60006121f0848285016120f3565b91505092915050565b6000806040838503121561220c57600080fd5b600061221a858286016120f3565b925050602061222b858286016120f3565b9150509250929050565b60008060006060848603121561224a57600080fd5b6000612258868287016120f3565b9350506020612269868287016120f3565b925050604061227a868287016121bb565b9150509250925092565b6000806000806080858703121561229a57600080fd5b60006122a8878288016120f3565b94505060206122b9878288016120f3565b93505060406122ca878288016121bb565b925050606085013567ffffffffffffffff8111156122e757600080fd5b6122f387828801612147565b91505092959194509250565b6000806040838503121561231257600080fd5b6000612320858286016120f3565b925050602061233185828601612108565b9150509250929050565b6000806040838503121561234e57600080fd5b600061235c858286016120f3565b925050602061236d858286016121bb565b9150509250929050565b60006020828403121561238957600080fd5b60006123978482850161211d565b91505092915050565b6000602082840312156123b257600080fd5b60006123c084828501612132565b91505092915050565b6000806000604084860312156123de57600080fd5b600084013567ffffffffffffffff8111156123f857600080fd5b61240486828701612171565b93509350506020612417868287016121bb565b9150509250925092565b60006020828403121561243357600080fd5b6000612441848285016121bb565b91505092915050565b61245381612b17565b82525050565b61246281612b29565b82525050565b600061247382612ad4565b61247d8185612aea565b935061248d818560208601612b9a565b61249681612d06565b840191505092915050565b60006124ad8385612afb565b93506124ba838584612b8b565b6124c383612d06565b840190509392505050565b60006124d982612adf565b6124e38185612afb565b93506124f3818560208601612b9a565b6124fc81612d06565b840191505092915050565b600061251282612adf565b61251c8185612b0c565b935061252c818560208601612b9a565b80840191505092915050565b6000612545602d83612afb565b915061255082612d17565b604082019050919050565b6000612568603283612afb565b915061257382612d66565b604082019050919050565b600061258b602683612afb565b915061259682612db5565b604082019050919050565b60006125ae602583612afb565b91506125b982612e04565b604082019050919050565b60006125d1601c83612afb565b91506125dc82612e53565b602082019050919050565b60006125f4602483612afb565b91506125ff82612e7c565b604082019050919050565b6000612617601983612afb565b915061262282612ecb565b602082019050919050565b600061263a601983612afb565b915061264582612ef4565b602082019050919050565b600061265d602983612afb565b915061266882612f1d565b604082019050919050565b6000612680602e83612afb565b915061268b82612f6c565b604082019050919050565b60006126a3602083612afb565b91506126ae82612fbb565b602082019050919050565b60006126c6602083612afb565b91506126d182612fe4565b602082019050919050565b60006126e9601683612afb565b91506126f48261300d565b602082019050919050565b600061270c601883612afb565b915061271782613036565b602082019050919050565b600061272f602183612afb565b915061273a8261305f565b604082019050919050565b6000612752603d83612afb565b915061275d826130ae565b604082019050919050565b61277181612b81565b82525050565b60006127838285612507565b915061278f8284612507565b91508190509392505050565b60006020820190506127b0600083018461244a565b92915050565b60006080820190506127cb600083018761244a565b6127d8602083018661244a565b6127e56040830185612768565b81810360608301526127f78184612468565b905095945050505050565b60006020820190506128176000830184612459565b92915050565b600060208201905081810360008301526128388184866124a1565b90509392505050565b6000602082019050818103600083015261285b81846124ce565b905092915050565b6000602082019050818103600083015261287c81612538565b9050919050565b6000602082019050818103600083015261289c8161255b565b9050919050565b600060208201905081810360008301526128bc8161257e565b9050919050565b600060208201905081810360008301526128dc816125a1565b9050919050565b600060208201905081810360008301526128fc816125c4565b9050919050565b6000602082019050818103600083015261291c816125e7565b9050919050565b6000602082019050818103600083015261293c8161260a565b9050919050565b6000602082019050818103600083015261295c8161262d565b9050919050565b6000602082019050818103600083015261297c81612650565b9050919050565b6000602082019050818103600083015261299c81612673565b9050919050565b600060208201905081810360008301526129bc81612696565b9050919050565b600060208201905081810360008301526129dc816126b9565b9050919050565b600060208201905081810360008301526129fc816126dc565b9050919050565b60006020820190508181036000830152612a1c816126ff565b9050919050565b60006020820190508181036000830152612a3c81612722565b9050919050565b60006020820190508181036000830152612a5c81612745565b9050919050565b6000602082019050612a786000830184612768565b92915050565b6000612a88612a99565b9050612a948282612bff565b919050565b6000604051905090565b600067ffffffffffffffff821115612abe57612abd612cd7565b5b612ac782612d06565b9050602081019050919050565b600081519050919050565b600081519050919050565b600082825260208201905092915050565b600082825260208201905092915050565b600081905092915050565b6000612b2282612b61565b9050919050565b60008115159050919050565b60007fffffffff0000000000000000000000000000000000000000000000000000000082169050919050565b600073ffffffffffffffffffffffffffffffffffffffff82169050919050565b6000819050919050565b82818337600083830152505050565b60005b83811015612bb8578082015181840152602081019050612b9d565b83811115612bc7576000848401525b50505050565b60006002820490506001821680612be557607f821691505b60208210811415612bf957612bf8612ca8565b5b50919050565b612c0882612d06565b810181811067ffffffffffffffff82111715612c2757612c26612cd7565b5b80604052505050565b6000612c3b82612b81565b91507fffffffffffffffffffffffffffffffffffffffffffffffffffffffffffffffff821415612c6e57612c6d612c79565b5b600182019050919050565b7f4e487b7100000000000000000000000000000000000000000000000000000000600052601160045260246000fd5b7f4e487b7100000000000000000000000000000000000000000000000000000000600052602260045260246000fd5b7f4e487b7100000000000000000000000000000000000000000000000000000000600052604160045260246000fd5b6000601f19601f8301169050919050565b7f4552433732313a2063616c6c6572206973206e6f7420746f6b656e206f776e6560008201527f72206f7220617070726f76656400000000000000000000000000000000000000602082015250565b7f4552433732313a207472616e7366657220746f206e6f6e20455243373231526560008201527f63656976657220696d706c656d656e7465720000000000000000000000000000602082015250565b7f4f776e61626c653a206e6577206f776e657220697320746865207a65726f206160008201527f6464726573730000000000000000000000000000000000000000000000000000602082015250565b7f4552433732313a207472616e736665722066726f6d20696e636f72726563742060008201527f6f776e6572000000000000000000000000000000000000000000000000000000602082015250565b7f4552433732313a20746f6b656e20616c7265616479206d696e74656400000000600082015250565b7f4552433732313a207472616e7366657220746f20746865207a65726f2061646460008201527f7265737300000000000000000000000000000000000000000000000000000000602082015250565b7f4552433732313a20617070726f766520746f2063616c6c657200000000000000600082015250565b7f526f79616c74792063616e6e6f74206578636565642031302500000000000000600082015250565b7f4552433732313a2061646472657373207a65726f206973206e6f74206120766160008201527f6c6964206f776e65720000000000000000000000000000000000000000000000602082015250565b7f45524337323155524953746f726167653a2055524920736574206f66206e6f6e60008201527f6578697374656e7420746f6b656e000000000000000000000000000000000000602082015250565b7f4552433732313a206d696e7420746f20746865207a65726f2061646472657373600082015250565b7f4f776e61626c653a2063616c6c6572206973206e6f7420746865206f776e6572600082015250565b7f4e6f7420616e20617070726f7665642061727469737400000000000000000000600082015250565b7f4552433732313a20696e76616c696420746f6b656e2049440000000000000000600082015250565b7f4552433732313a20617070726f76616c20746f2063757272656e74206f776e6560008201527f7200000000000000000000000000000000000000000000000000000000000000602082015250565b7f4552433732313a20617070726f76652063616c6c6572206973206e6f7420746f60008201527f6b656e206f776e6572206f7220617070726f76656420666f7220616c6c000000602082015250565b61310681612b17565b811461311157600080fd5b50565b61311d81612b29565b811461312857600080fd5b50565b61313481612b35565b811461313f57600080fd5b50565b61314b81612b81565b811461315657600080fd5b5056fea2646970667358221220eb749a9c1e7b02651fad990d0371d3d634513cfe8a5368e09d3ebc6170bcea3a64736f6c63430008010033",
  "linkReferences": {},
  "deployedLinkReferences": {}
}