{
  "_format": "hh-sol-artifact-1",
  "contractName": "GameMechanics",
  "sourceName": "contracts/GameMechanics.sol",
  "abi": [
    {
      "inputs": [
        {
          "internalType": "address",
          "name": "_rewardToken",
          "type": "address"
        },
        {
          "internalType": "address",
          "name": "_musicNFT",
          "type": "address"
        }
      ],
      "stateMutability": "nonpayable",
      "type": "constructor"
    },
    {
      "anonymous": false,
      "inputs": [
        {
          "indexed": true,
          "internalType": "uint256",
          "name": "tokenId",
          "type": "uint256"
        },
        {
          "indexed": false,
          "internalType": "uint256",
          "name": "votes",
          "type": "uint256"
        }
      ],
      "name": "LeaderboardUpdated",
      "type": "event"
    },
    {
      "anonymous": false,
      "inputs": [
        {
          "indexed": true,
          "internalType": "address",
          "name": "previousOwner",
          "type": "address"
        },
        {
          "indexed": true,
          "internalType": "address",
          "name": "newOwner",
          "type": "address"
        }
      ],
      "name": "OwnershipTransferred",
      "type": "event"
    },
    {
      "anonymous": false,
      "inputs": [
        {
          "indexed": true,
          "internalType": "uint256",
          "name": "tokenId",
          "type": "uint256"
        },
        {
          "indexed": true,
          "internalType": "address",
          "name": "voter",
          "type": "address"
        }
      ],
      "name": "Voted",
      "type": "event"
    },
    {
      "inputs": [],
      "name": "cooldownPeriod",
      "outputs": [
        {
          "internalType": "uint256",
          "name": "",
          "type": "uint256"
        }
      ],
      "stateMutability": "view",
      "type": "function"
    },
    {
      "inputs": [],
      "name": "getLeaderboard",
      "outputs": [
        {
          "internalType": "uint256[]",
          "name": "",
          "type": "uint256[]"
        },
        {
          "internalType": "uint256[]",
          "name": "",
          "type": "uint256[]"
        }
      ],
      "stateMutability": "view",
      "type": "function"
    },
    {
      "inputs": [
        {
          "internalType": "address",
          "name": "",
          "type": "address"
        }
      ],
      "name": "lastVoteTimestamp",
      "outputs": [
        {
          "internalType": "uint256",
          "name": "",
          "type": "uint256"
        }
      ],
      "stateMutability": "view",
      "type": "function"
    },
    {
      "inputs": [],
      "name": "musicNFT",
      "outputs": [
        {
          "internalType": "contract IMusicNFT",
          "name": "",
          "type": "address"
        }
      ],
      "stateMutability": "view",
      "type": "function"
    },
    {
      "inputs": [],
      "name": "owner",
      "outputs": [
        {
          "internalType": "address",
          "name": "",
          "type": "address"
        }
      ],
      "stateMutability": "view",
      "type": "function"
    },
    {
      "inputs": [],
      "name": "renounceOwnership",
      "outputs": [],
      "stateMutability": "nonpayable",
      "type": "function"
    },
    {
      "inputs": [],
      "name": "rewardToken",
      "outputs": [
        {
          "internalType": "contract IERC20",
          "name": "",
          "type": "address"
        }
      ],
      "stateMutability": "view",
      "type": "function"
    },
    {
      "inputs": [
        {
          "internalType": "address",
          "name": "newOwner",
          "type": "address"
        }
      ],
      "name": "transferOwnership",
      "outputs": [],
      "stateMutability": "nonpayable",
      "type": "function"
    },
    {
      "inputs": [
        {
          "internalType": "uint256",
          "name": "newCooldown",
          "type": "uint256"
        }
      ],
      "name": "updateCooldownPeriod",
      "outputs": [],
      "stateMutability": "nonpayable",
      "type": "function"
    },
    {
      "inputs": [
        {
          "internalType": "uint256",
          "name": "tokenId",
          "type": "uint256"
        }
      ],
      "name": "vote",
      "outputs": [],
      "stateMutability": "nonpayable",
      "type": "function"
    },
    {
      "inputs": [
        {
          "internalType": "uint256",
          "name": "",
          "type": "uint256"
        },
        {
          "internalType": "uint256",
          "name": "",
          "type": "uint256"
        }
      ],
      "name": "voters",
      "outputs": [
        {
          "internalType": "address",
          "name": "",
          "type": "address"
        }
      ],
      "stateMutability": "view",
      "type": "function"
    },
    {
      "inputs": [
        {
          "internalType": "uint256",
          "name": "",
          "type": "uint256"
        }
      ],
      "name": "votes",
      "outputs": [
        {
          "internalType": "uint256",
          "name": "",
          "type": "uint256"
        }
      ],
      "stateMutability": "view",
      "type": "function"
    }
  ],
  "bytecode": "0x6080604052610e106006553480156200001757600080fd5b506040516200144c3803806200144c83398181016040528101906200003d9190620001ca565b6200005d62000051620000e760201b60201c565b620000ef60201b60201c565b81600160006101000a81548173ffffffffffffffffffffffffffffffffffffffff021916908373ffffffffffffffffffffffffffffffffffffffff16021790555080600260006101000a81548173ffffffffffffffffffffffffffffffffffffffff021916908373ffffffffffffffffffffffffffffffffffffffff160217905550505062000259565b600033905090565b60008060009054906101000a900473ffffffffffffffffffffffffffffffffffffffff169050816000806101000a81548173ffffffffffffffffffffffffffffffffffffffff021916908373ffffffffffffffffffffffffffffffffffffffff1602179055508173ffffffffffffffffffffffffffffffffffffffff168173ffffffffffffffffffffffffffffffffffffffff167f8be0079c531659141344cd1fd0a4f28419497f9722a3daafe3b4186f6b6457e060405160405180910390a35050565b600081519050620001c4816200023f565b92915050565b60008060408385031215620001de57600080fd5b6000620001ee85828601620001b3565b92505060206200020185828601620001b3565b9150509250929050565b600062000218826200021f565b9050919050565b600073ffffffffffffffffffffffffffffffffffffffff82169050919050565b6200024a816200020b565b81146200025657600080fd5b50565b6111e380620002696000396000f3fe608060405234801561001057600080fd5b50600436106100b45760003560e01c80638da5cb5b116100715780638da5cb5b14610168578063de1cf4ad14610186578063ee577b15146101b6578063f2fde38b146101d4578063f7c618c1146101f0578063fba00cbd1461020e576100b4565b80630121b93f146100b957806304646a49146100d55780635df81330146100f35780636d763a6e14610123578063715018a614610142578063861f6bfd1461014c575b600080fd5b6100d360048036038101906100ce9190610c1a565b61023e565b005b6100dd6104f7565b6040516100ea9190610ef2565b60405180910390f35b61010d60048036038101906101089190610c1a565b6104fd565b60405161011a9190610ef2565b60405180910390f35b61012b610515565b604051610139929190610e25565b60405180910390f35b61014a6108a5565b005b61016660048036038101906101619190610c1a565b6108b9565b005b6101706108cb565b60405161017d9190610de1565b60405180910390f35b6101a0600480360381019061019b9190610bc8565b6108f4565b6040516101ad9190610ef2565b60405180910390f35b6101be61090c565b6040516101cb9190610e77565b60405180910390f35b6101ee60048036038101906101e99190610bc8565b610932565b005b6101f86109b6565b6040516102059190610e5c565b60405180910390f35b61022860048036038101906102239190610c6c565b6109dc565b6040516102359190610de1565b60405180910390f35b600654600560003373ffffffffffffffffffffffffffffffffffffffff1673ffffffffffffffffffffffffffffffffffffffff1681526020019081526020016000205461028b9190610f57565b42116102cc576040517f08c379a00000000000000000000000000000000000000000000000000000000081526004016102c390610eb2565b60405180910390fd5b6003600082815260200190815260200160002060008154809291906102f09061104f565b919050555060046000828152602001908152602001600020339080600181540180825580915050600190039060005260206000200160009091909190916101000a81548173ffffffffffffffffffffffffffffffffffffffff021916908373ffffffffffffffffffffffffffffffffffffffff16021790555042600560003373ffffffffffffffffffffffffffffffffffffffff1673ffffffffffffffffffffffffffffffffffffffff16815260200190815260200160002081905550600160009054906101000a900473ffffffffffffffffffffffffffffffffffffffff1673ffffffffffffffffffffffffffffffffffffffff1663a9059cbb33678ac7230489e800006040518363ffffffff1660e01b8152600401610412929190610dfc565b602060405180830381600087803b15801561042c57600080fd5b505af1158015610440573d6000803e3d6000fd5b505050506040513d601f19601f820116820180604052508101906104649190610bf1565b503373ffffffffffffffffffffffffffffffffffffffff16817f030b0f8dcd86a031eddb071f91882edeac8173663ba775713b677b42b51be44b60405160405180910390a3807f2e5ac4384ad62e3cf18c8aba01ff1c95b4a369b92626f4791b534e2685816c5060036000848152602001908152602001600020546040516104ec9190610ef2565b60405180910390a250565b60065481565b60036020528060005260406000206000915090505481565b6060806000600260009054906101000a900473ffffffffffffffffffffffffffffffffffffffff1673ffffffffffffffffffffffffffffffffffffffff166375794a3c6040518163ffffffff1660e01b815260040160206040518083038186803b15801561058257600080fd5b505afa158015610596573d6000803e3d6000fd5b505050506040513d601f19601f820116820180604052508101906105ba9190610c43565b67ffffffffffffffff8111156105f9577f4e487b7100000000000000000000000000000000000000000000000000000000600052604160045260246000fd5b6040519080825280602002602001820160405280156106275781602001602082028036833780820191505090505b5090506000600260009054906101000a900473ffffffffffffffffffffffffffffffffffffffff1673ffffffffffffffffffffffffffffffffffffffff166375794a3c6040518163ffffffff1660e01b815260040160206040518083038186803b15801561069457600080fd5b505afa1580156106a8573d6000803e3d6000fd5b505050506040513d601f19601f820116820180604052508101906106cc9190610c43565b67ffffffffffffffff81111561070b577f4e487b7100000000000000000000000000000000000000000000000000000000600052604160045260246000fd5b6040519080825280602002602001820160405280156107395781602001602082028036833780820191505090505b50905060005b600260009054906101000a900473ffffffffffffffffffffffffffffffffffffffff1673ffffffffffffffffffffffffffffffffffffffff166375794a3c6040518163ffffffff1660e01b815260040160206040518083038186803b1580156107a757600080fd5b505afa1580156107bb573d6000803e3d6000fd5b505050506040513d601f19601f820116820180604052508101906107df9190610c43565b8110156108985780838281518110610820577f4e487b7100000000000000000000000000000000000000000000000000000000600052603260045260246000fd5b6020026020010181815250506003600082815260200190815260200160002054828281518110610879577f4e487b7100000000000000000000000000000000000000000000000000000000600052603260045260246000fd5b60200260200101818152505080806108909061104f565b91505061073f565b5081819350935050509091565b6108ad610a2a565b6108b76000610aa8565b565b6108c1610a2a565b8060068190555050565b60008060009054906101000a900473ffffffffffffffffffffffffffffffffffffffff16905090565b60056020528060005260406000206000915090505481565b600260009054906101000a900473ffffffffffffffffffffffffffffffffffffffff1681565b61093a610a2a565b600073ffffffffffffffffffffffffffffffffffffffff168173ffffffffffffffffffffffffffffffffffffffff1614156109aa576040517f08c379a00000000000000000000000000000000000000000000000000000000081526004016109a190610e92565b60405180910390fd5b6109b381610aa8565b50565b600160009054906101000a900473ffffffffffffffffffffffffffffffffffffffff1681565b600460205281600052604060002081815481106109f857600080fd5b906000526020600020016000915091509054906101000a900473ffffffffffffffffffffffffffffffffffffffff1681565b610a32610b6c565b73ffffffffffffffffffffffffffffffffffffffff16610a506108cb565b73ffffffffffffffffffffffffffffffffffffffff1614610aa6576040517f08c379a0000000000000000000000000000000000000000000000000000000008152600401610a9d90610ed2565b60405180910390fd5b565b60008060009054906101000a900473ffffffffffffffffffffffffffffffffffffffff169050816000806101000a81548173ffffffffffffffffffffffffffffffffffffffff021916908373ffffffffffffffffffffffffffffffffffffffff1602179055508173ffffffffffffffffffffffffffffffffffffffff168173ffffffffffffffffffffffffffffffffffffffff167f8be0079c531659141344cd1fd0a4f28419497f9722a3daafe3b4186f6b6457e060405160405180910390a35050565b600033905090565b600081359050610b8381611168565b92915050565b600081519050610b988161117f565b92915050565b600081359050610bad81611196565b92915050565b600081519050610bc281611196565b92915050565b600060208284031215610bda57600080fd5b6000610be884828501610b74565b91505092915050565b600060208284031215610c0357600080fd5b6000610c1184828501610b89565b91505092915050565b600060208284031215610c2c57600080fd5b6000610c3a84828501610b9e565b91505092915050565b600060208284031215610c5557600080fd5b6000610c6384828501610bb3565b91505092915050565b60008060408385031215610c7f57600080fd5b6000610c8d85828601610b9e565b9250506020610c9e85828601610b9e565b9150509250929050565b6000610cb48383610dc3565b60208301905092915050565b610cc981610fad565b82525050565b6000610cda82610f1d565b610ce48185610f35565b9350610cef83610f0d565b8060005b83811015610d20578151610d078882610ca8565b9750610d1283610f28565b925050600181019050610cf3565b5085935050505092915050565b610d3681610ff5565b82525050565b610d4581611019565b82525050565b610d548161103d565b82525050565b6000610d67602683610f46565b9150610d72826110c7565b604082019050919050565b6000610d8a601683610f46565b9150610d9582611116565b602082019050919050565b6000610dad602083610f46565b9150610db88261113f565b602082019050919050565b610dcc81610feb565b82525050565b610ddb81610feb565b82525050565b6000602082019050610df66000830184610cc0565b92915050565b6000604082019050610e116000830185610cc0565b610e1e6020830184610d4b565b9392505050565b60006040820190508181036000830152610e3f8185610ccf565b90508181036020830152610e538184610ccf565b90509392505050565b6000602082019050610e716000830184610d2d565b92915050565b6000602082019050610e8c6000830184610d3c565b92915050565b60006020820190508181036000830152610eab81610d5a565b9050919050565b60006020820190508181036000830152610ecb81610d7d565b9050919050565b60006020820190508181036000830152610eeb81610da0565b9050919050565b6000602082019050610f076000830184610dd2565b92915050565b6000819050602082019050919050565b600081519050919050565b6000602082019050919050565b600082825260208201905092915050565b600082825260208201905092915050565b6000610f6282610feb565b9150610f6d83610feb565b9250827fffffffffffffffffffffffffffffffffffffffffffffffffffffffffffffffff03821115610fa257610fa1611098565b5b828201905092915050565b6000610fb882610fcb565b9050919050565b60008115159050919050565b600073ffffffffffffffffffffffffffffffffffffffff82169050919050565b6000819050919050565b600061100082611007565b9050919050565b600061101282610fcb565b9050919050565b60006110248261102b565b9050919050565b600061103682610fcb565b9050919050565b600061104882610feb565b9050919050565b600061105a82610feb565b91507fffffffffffffffffffffffffffffffffffffffffffffffffffffffffffffffff82141561108d5761108c611098565b5b600182019050919050565b7f4e487b7100000000000000000000000000000000000000000000000000000000600052601160045260246000fd5b7f4f776e61626c653a206e6577206f776e657220697320746865207a65726f206160008201527f6464726573730000000000000000000000000000000000000000000000000000602082015250565b7f436f6f6c646f776e20706572696f642061637469766500000000000000000000600082015250565b7f4f776e61626c653a2063616c6c6572206973206e6f7420746865206f776e6572600082015250565b61117181610fad565b811461117c57600080fd5b50565b61118881610fbf565b811461119357600080fd5b50565b61119f81610feb565b81146111aa57600080fd5b5056fea264697066735822122043e85bb2026f71275f833d43c0387d4cdd6ede6269c10e358aa39100e635329364736f6c63430008010033",
  "linkReferences": {},
  "deployedLinkReferences": {}
}